{
  "address": "0x4C2De56d9338B04aCd04436F281420f9cbf76ae5",
  "abi": [
    {
      "inputs": [
        {
          "internalType": "address",
          "name": "vrfCoordinatorV2",
          "type": "address"
        },
        {
          "internalType": "uint256",
          "name": "_enteranceFee",
          "type": "uint256"
        },
        {
          "internalType": "bytes32",
          "name": "ganLane",
          "type": "bytes32"
        },
        {
          "internalType": "uint64",
          "name": "subscriptionId",
          "type": "uint64"
        },
        {
          "internalType": "uint32",
          "name": "callbackGasLimit",
          "type": "uint32"
        },
        {
          "internalType": "uint256",
          "name": "interval",
          "type": "uint256"
        }
      ],
      "stateMutability": "nonpayable",
      "type": "constructor"
    },
    {
      "inputs": [
        {
          "internalType": "address",
          "name": "have",
          "type": "address"
        },
        {
          "internalType": "address",
          "name": "want",
          "type": "address"
        }
      ],
      "name": "OnlyCoordinatorCanFulfill",
      "type": "error"
    },
    {
      "inputs": [],
      "name": "Raffle_AmountSendFailedToRecentWinner",
      "type": "error"
    },
    {
      "inputs": [],
      "name": "Raffle_NotEnoughFee",
      "type": "error"
    },
    {
      "inputs": [],
      "name": "Raffle_NotOpen",
      "type": "error"
    },
    {
      "inputs": [
        {
          "internalType": "uint256",
          "name": "balance",
          "type": "uint256"
        },
        {
          "internalType": "uint256",
          "name": "participants",
          "type": "uint256"
        },
        {
          "internalType": "bool",
          "name": "isOpen",
          "type": "bool"
        },
        {
          "internalType": "uint256",
          "name": "lastTimeStamp",
          "type": "uint256"
        }
      ],
      "name": "Raffle_NotUpKeepNeeded",
      "type": "error"
    },
    {
      "anonymous": false,
      "inputs": [
        {
          "indexed": true,
          "internalType": "address",
          "name": "_from",
          "type": "address"
        },
        {
          "indexed": false,
          "internalType": "uint256",
          "name": "_amount",
          "type": "uint256"
        }
      ],
      "name": "Raffle_Entered",
      "type": "event"
    },
    {
      "anonymous": false,
      "inputs": [
        {
          "indexed": true,
          "internalType": "address",
          "name": "recentWinner",
          "type": "address"
        },
        {
          "indexed": false,
          "internalType": "uint256",
          "name": "_amount",
          "type": "uint256"
        }
      ],
      "name": "Raffle_PickedRandomWinner",
      "type": "event"
    },
    {
      "anonymous": false,
      "inputs": [
        {
          "indexed": true,
          "internalType": "uint256",
          "name": "requestId",
          "type": "uint256"
        }
      ],
      "name": "Raffle_RequestedRandomWinner",
      "type": "event"
    },
    {
      "inputs": [
        {
          "internalType": "bytes",
          "name": "",
          "type": "bytes"
        }
      ],
      "name": "checkUpkeep",
      "outputs": [
        {
          "internalType": "bool",
          "name": "upkeepNeeded",
          "type": "bool"
        },
        {
          "internalType": "bytes",
          "name": "",
          "type": "bytes"
        }
      ],
      "stateMutability": "view",
      "type": "function"
    },
    {
      "inputs": [],
      "name": "enterRaffle",
      "outputs": [
        {
          "internalType": "bool",
          "name": "",
          "type": "bool"
        }
      ],
      "stateMutability": "payable",
      "type": "function"
    },
    {
      "inputs": [],
      "name": "getBalance",
      "outputs": [
        {
          "internalType": "uint256",
          "name": "",
          "type": "uint256"
        }
      ],
      "stateMutability": "view",
      "type": "function"
    },
    {
      "inputs": [],
      "name": "getCallbackGasLimit",
      "outputs": [
        {
          "internalType": "uint32",
          "name": "",
          "type": "uint32"
        }
      ],
      "stateMutability": "view",
      "type": "function"
    },
    {
      "inputs": [],
      "name": "getEnteranceFee",
      "outputs": [
        {
          "internalType": "uint256",
          "name": "",
          "type": "uint256"
        }
      ],
      "stateMutability": "view",
      "type": "function"
    },
    {
      "inputs": [],
      "name": "getGanLane",
      "outputs": [
        {
          "internalType": "bytes32",
          "name": "",
          "type": "bytes32"
        }
      ],
      "stateMutability": "view",
      "type": "function"
    },
    {
      "inputs": [],
      "name": "getLastTimeStamp",
      "outputs": [
        {
          "internalType": "uint256",
          "name": "",
          "type": "uint256"
        }
      ],
      "stateMutability": "view",
      "type": "function"
    },
    {
      "inputs": [],
      "name": "getNextTimeTrigger",
      "outputs": [
        {
          "internalType": "uint256",
          "name": "",
          "type": "uint256"
        }
      ],
      "stateMutability": "view",
      "type": "function"
    },
    {
      "inputs": [],
      "name": "getNumWords",
      "outputs": [
        {
          "internalType": "uint32",
          "name": "",
          "type": "uint32"
        }
      ],
      "stateMutability": "pure",
      "type": "function"
    },
    {
      "inputs": [
        {
          "internalType": "uint256",
          "name": "_index",
          "type": "uint256"
        }
      ],
      "name": "getParticipant",
      "outputs": [
        {
          "internalType": "address payable",
          "name": "",
          "type": "address"
        }
      ],
      "stateMutability": "view",
      "type": "function"
    },
    {
      "inputs": [],
      "name": "getParticipants",
      "outputs": [
        {
          "internalType": "address payable[]",
          "name": "",
          "type": "address[]"
        }
      ],
      "stateMutability": "view",
      "type": "function"
    },
    {
      "inputs": [],
      "name": "getRaffleState",
      "outputs": [
        {
          "internalType": "enum Raffle.RaffleState",
          "name": "",
          "type": "uint8"
        }
      ],
      "stateMutability": "view",
      "type": "function"
    },
    {
      "inputs": [],
      "name": "getRecentWinner",
      "outputs": [
        {
          "internalType": "address",
          "name": "",
          "type": "address"
        }
      ],
      "stateMutability": "view",
      "type": "function"
    },
    {
      "inputs": [],
      "name": "getSubscriptionId",
      "outputs": [
        {
          "internalType": "uint64",
          "name": "",
          "type": "uint64"
        }
      ],
      "stateMutability": "view",
      "type": "function"
    },
    {
      "inputs": [],
      "name": "getTimeInterval",
      "outputs": [
        {
          "internalType": "uint256",
          "name": "",
          "type": "uint256"
        }
      ],
      "stateMutability": "view",
      "type": "function"
    },
    {
      "inputs": [],
      "name": "getVrfCoordinator",
      "outputs": [
        {
          "internalType": "address",
          "name": "",
          "type": "address"
        }
      ],
      "stateMutability": "view",
      "type": "function"
    },
    {
      "inputs": [
        {
          "internalType": "bytes",
          "name": "",
          "type": "bytes"
        }
      ],
      "name": "performUpkeep",
      "outputs": [],
      "stateMutability": "nonpayable",
      "type": "function"
    },
    {
      "inputs": [
        {
          "internalType": "uint256",
          "name": "requestId",
          "type": "uint256"
        },
        {
          "internalType": "uint256[]",
          "name": "randomWords",
          "type": "uint256[]"
        }
      ],
      "name": "rawFulfillRandomWords",
      "outputs": [],
      "stateMutability": "nonpayable",
      "type": "function"
    }
  ],
  "transactionHash": "0xaf565c018e2ee155b5c87311d3b4d14047fac294f32371011b9e1c88fec92f03",
  "args": [
    "0x377F8F3b3e03DEe2f921271Dbc378f1d48741a22",
    "10000000000000000",
    "0x474e34a077df58807dbe9c96d3c009b23b3c6d0cce433e59bbf5b34f823bc56c",
    "2",
    "500000",
    "60"
  ],
  "numDeployments": 1,
  "solcInputHash": "1e14634bd0ca00e86a0bc0ad15c90e96",
  "bytecode": "0x6101406040523480156200001257600080fd5b5060405162001d0e38038062001d0e8339818101604052810190620000389190620001b6565b858073ffffffffffffffffffffffffffffffffffffffff1660808173ffffffffffffffffffffffffffffffffffffffff1660601b81525050508460a0818152505085600160006101000a81548173ffffffffffffffffffffffffffffffffffffffff021916908373ffffffffffffffffffffffffffffffffffffffff1602179055508360c081815250508267ffffffffffffffff1660e08167ffffffffffffffff1660c01b815250508163ffffffff166101008163ffffffff1660e01b815250506000600160146101000a81548160ff02191690836001811115620001225762000121620002be565b5b02179055504260038190555080610120818152505050505050505062000374565b6000815190506200015481620002f2565b92915050565b6000815190506200016b816200030c565b92915050565b600081519050620001828162000326565b92915050565b600081519050620001998162000340565b92915050565b600081519050620001b0816200035a565b92915050565b60008060008060008060c08789031215620001d657620001d5620002ed565b5b6000620001e689828a0162000143565b9650506020620001f989828a0162000171565b95505060406200020c89828a016200015a565b94505060606200021f89828a016200019f565b93505060806200023289828a0162000188565b92505060a06200024589828a0162000171565b9150509295509295509295565b60006200025f8262000270565b9050919050565b6000819050919050565b600073ffffffffffffffffffffffffffffffffffffffff82169050919050565b6000819050919050565b600063ffffffff82169050919050565b600067ffffffffffffffff82169050919050565b7f4e487b7100000000000000000000000000000000000000000000000000000000600052602160045260246000fd5b600080fd5b620002fd8162000252565b81146200030957600080fd5b50565b620003178162000266565b81146200032357600080fd5b50565b620003318162000290565b81146200033d57600080fd5b50565b6200034b816200029a565b81146200035757600080fd5b50565b6200036581620002aa565b81146200037157600080fd5b50565b60805160601c60a05160c05160e05160c01c6101005160e01c61012051611910620003fe6000396000818161042c01528181610a660152610b1b0152600081816108730152610b780152600081816108500152610b5001526000818161082f0152610af30152600081816105a401526109690152600081816104e2015261053601526119106000f3fe6080604052600436106101095760003560e01c8063535bf50f11610095578063c1c244e811610064578063c1c244e814610351578063c7e378801461037c578063d0609552146103a7578063de3d9fb7146103d2578063de8be8e7146103fd57610109565b8063535bf50f1461029257806353a2c19a146102bd5780635aa68ac0146102e85780636e04ff0d1461031357610109565b80631b9db2ef116100dc5780631b9db2ef146101ba5780631fe543e3146101f75780632cfcc539146102205780634585e33b1461023e578063473f1ddc1461026757610109565b806303a827121461010e5780630cb4a29d14610139578063115cbaf51461016457806312065fe01461018f575b600080fd5b34801561011a57600080fd5b50610123610428565b6040516101309190611431565b60405180910390f35b34801561014557600080fd5b5061014e610450565b60405161015b91906112dc565b60405180910390f35b34801561017057600080fd5b5061017961047a565b6040516101869190611416565b60405180910390f35b34801561019b57600080fd5b506101a4610491565b6040516101b19190611431565b60405180910390f35b3480156101c657600080fd5b506101e160048036038101906101dc91906110a9565b610499565b6040516101ee91906112f7565b60405180910390f35b34801561020357600080fd5b5061021e60048036038101906102199190611103565b6104e0565b005b6102286105a0565b604051610235919061135d565b60405180910390f35b34801561024a57600080fd5b5061026560048036038101906102609190611013565b610721565b005b34801561027357600080fd5b5061027c61093b565b60405161028991906112dc565b60405180910390f35b34801561029e57600080fd5b506102a7610965565b6040516102b49190611431565b60405180910390f35b3480156102c957600080fd5b506102d261098d565b6040516102df9190611491565b60405180910390f35b3480156102f457600080fd5b506102fd610996565b60405161030a919061133b565b60405180910390f35b34801561031f57600080fd5b5061033a60048036038101906103359190611060565b610a24565b604051610348929190611378565b60405180910390f35b34801561035d57600080fd5b50610366610ae5565b6040516103739190611431565b60405180910390f35b34801561038857600080fd5b50610391610aef565b60405161039e91906113a8565b60405180910390f35b3480156103b357600080fd5b506103bc610b17565b6040516103c99190611431565b60405180910390f35b3480156103de57600080fd5b506103e7610b4c565b6040516103f491906114ac565b60405180910390f35b34801561040957600080fd5b50610412610b74565b60405161041f9190611491565b60405180910390f35b60007f0000000000000000000000000000000000000000000000000000000000000000905090565b6000600160009054906101000a900473ffffffffffffffffffffffffffffffffffffffff16905090565b6000600160149054906101000a900460ff16905090565b600047905090565b60008082815481106104ae576104ad61181f565b5b9060005260206000200160009054906101000a900473ffffffffffffffffffffffffffffffffffffffff169050919050565b7f000000000000000000000000000000000000000000000000000000000000000073ffffffffffffffffffffffffffffffffffffffff163373ffffffffffffffffffffffffffffffffffffffff161461059257337f00000000000000000000000000000000000000000000000000000000000000006040517f1cf993f4000000000000000000000000000000000000000000000000000000008152600401610589929190611312565b60405180910390fd5b61059c8282610b9c565b5050565b60007f00000000000000000000000000000000000000000000000000000000000000003410156105fc576040517fc81d8b3200000000000000000000000000000000000000000000000000000000815260040160405180910390fd5b600060018111156106105761060f6117f0565b5b600160149054906101000a900460ff166001811115610632576106316117f0565b5b14610669576040517fd6e19a8d00000000000000000000000000000000000000000000000000000000815260040160405180910390fd5b6000339080600181540180825580915050600190039060005260206000200160009091909190916101000a81548173ffffffffffffffffffffffffffffffffffffffff021916908373ffffffffffffffffffffffffffffffffffffffff1602179055503373ffffffffffffffffffffffffffffffffffffffff167f3f6ba5e524b35dc46d32f65ba41d100a8a361bba76e95a57a2b5acc64433e932346040516107129190611431565b60405180910390a26001905090565b600061073b60405180602001604052806000815250610a24565b509050806107c357476000805490506000600181111561075e5761075d6117f0565b5b600160149054906101000a900460ff1660018111156107805761077f6117f0565b5b146003546040517feb1e82cd0000000000000000000000000000000000000000000000000000000081526004016107ba949392919061144c565b60405180910390fd5b60018060146101000a81548160ff021916908360018111156107e8576107e76117f0565b5b02179055506000600160009054906101000a900473ffffffffffffffffffffffffffffffffffffffff1673ffffffffffffffffffffffffffffffffffffffff16635d3b1d307f00000000000000000000000000000000000000000000000000000000000000007f000000000000000000000000000000000000000000000000000000000000000060037f000000000000000000000000000000000000000000000000000000000000000060026040518663ffffffff1660e01b81526004016108b49594939291906113c3565b602060405180830381600087803b1580156108ce57600080fd5b505af11580156108e2573d6000803e3d6000fd5b505050506040513d601f19601f8201168201806040525081019061090691906110d6565b9050807fd2848d183aa47dc898c1cb0dc1a3b95ba22f0adc4a14a0f3ad37c45f60d0993360405160405180910390a250505050565b6000600260009054906101000a900473ffffffffffffffffffffffffffffffffffffffff16905090565b60007f0000000000000000000000000000000000000000000000000000000000000000905090565b60006002905090565b60606000805480602002602001604051908101604052809291908181526020018280548015610a1a57602002820191906000526020600020905b8160009054906101000a900473ffffffffffffffffffffffffffffffffffffffff1673ffffffffffffffffffffffffffffffffffffffff16815260200190600101908083116109d0575b5050505050905090565b600060606000806001811115610a3d57610a3c6117f0565b5b600160149054906101000a900460ff166001811115610a5f57610a5e6117f0565b5b14905060007f000000000000000000000000000000000000000000000000000000000000000060035442610a9391906115ff565b11905060008060008054905011905060008047119050838015610ab35750825b8015610abc5750815b8015610ac55750805b955085604051806020016040528060008152509550955050505050915091565b6000600354905090565b60007f0000000000000000000000000000000000000000000000000000000000000000905090565b60007f0000000000000000000000000000000000000000000000000000000000000000600354610b4791906115a9565b905090565b60007f0000000000000000000000000000000000000000000000000000000000000000905090565b60007f0000000000000000000000000000000000000000000000000000000000000000905090565b600081600081518110610bb257610bb161181f565b5b602002602001015190506000808054905082610bce9190611761565b90506000808281548110610be557610be461181f565b5b9060005260206000200160009054906101000a900473ffffffffffffffffffffffffffffffffffffffff16905080600260006101000a81548173ffffffffffffffffffffffffffffffffffffffff021916908373ffffffffffffffffffffffffffffffffffffffff160217905550426003819055506000600160146101000a81548160ff02191690836001811115610c8057610c7f6117f0565b5b0217905550600067ffffffffffffffff811115610ca057610c9f61184e565b5b604051908082528060200260200182016040528015610cce5781602001602082028036833780820191505090505b5060009080519060200190610ce4929190610dde565b5060008173ffffffffffffffffffffffffffffffffffffffff1647604051610d0b906112c7565b60006040518083038185875af1925050503d8060008114610d48576040519150601f19603f3d011682016040523d82523d6000602084013e610d4d565b606091505b5050905080610d88576040517fdf8099d100000000000000000000000000000000000000000000000000000000815260040160405180910390fd5b8173ffffffffffffffffffffffffffffffffffffffff167fe6b797a77fcd41bd60a506e0dfe9a5e720626377cf98caff341564bb80006dc847604051610dce9190611431565b60405180910390a2505050505050565b828054828255906000526020600020908101928215610e57579160200282015b82811115610e565782518260006101000a81548173ffffffffffffffffffffffffffffffffffffffff021916908373ffffffffffffffffffffffffffffffffffffffff16021790555091602001919060010190610dfe565b5b509050610e649190610e68565b5090565b5b80821115610e81576000816000905550600101610e69565b5090565b6000610e98610e93846114ec565b6114c7565b90508083825260208201905082856020860282011115610ebb57610eba611887565b5b60005b85811015610eeb5781610ed18882610fe9565b845260208401935060208301925050600181019050610ebe565b5050509392505050565b6000610f08610f0384611518565b6114c7565b905082815260208101848484011115610f2457610f2361188c565b5b610f2f8482856116ee565b509392505050565b600082601f830112610f4c57610f4b611882565b5b8135610f5c848260208601610e85565b91505092915050565b60008083601f840112610f7b57610f7a611882565b5b8235905067ffffffffffffffff811115610f9857610f9761187d565b5b602083019150836001820283011115610fb457610fb3611887565b5b9250929050565b600082601f830112610fd057610fcf611882565b5b8135610fe0848260208601610ef5565b91505092915050565b600081359050610ff8816118c3565b92915050565b60008151905061100d816118c3565b92915050565b6000806020838503121561102a57611029611896565b5b600083013567ffffffffffffffff81111561104857611047611891565b5b61105485828601610f65565b92509250509250929050565b60006020828403121561107657611075611896565b5b600082013567ffffffffffffffff81111561109457611093611891565b5b6110a084828501610fbb565b91505092915050565b6000602082840312156110bf576110be611896565b5b60006110cd84828501610fe9565b91505092915050565b6000602082840312156110ec576110eb611896565b5b60006110fa84828501610ffe565b91505092915050565b6000806040838503121561111a57611119611896565b5b600061112885828601610fe9565b925050602083013567ffffffffffffffff81111561114957611148611891565b5b61115585828601610f37565b9150509250929050565b600061116b8383611177565b60208301905092915050565b61118081611645565b82525050565b61118f81611645565b82525050565b61119e81611633565b82525050565b60006111af82611559565b6111b9818561157c565b93506111c483611549565b8060005b838110156111f55781516111dc888261115f565b97506111e78361156f565b9250506001810190506111c8565b5085935050505092915050565b61120b81611657565b82525050565b61121a81611663565b82525050565b600061122b82611564565b611235818561158d565b93506112458185602086016116fd565b61124e8161189b565b840191505092915050565b611262816116dc565b82525050565b600061127560008361159e565b9150611280826118ac565b600082019050919050565b61129481611680565b82525050565b6112a3816116ae565b82525050565b6112b2816116b8565b82525050565b6112c1816116c8565b82525050565b60006112d282611268565b9150819050919050565b60006020820190506112f16000830184611195565b92915050565b600060208201905061130c6000830184611186565b92915050565b60006040820190506113276000830185611195565b6113346020830184611195565b9392505050565b6000602082019050818103600083015261135581846111a4565b905092915050565b60006020820190506113726000830184611202565b92915050565b600060408201905061138d6000830185611202565b818103602083015261139f8184611220565b90509392505050565b60006020820190506113bd6000830184611211565b92915050565b600060a0820190506113d86000830188611211565b6113e560208301876112b8565b6113f2604083018661128b565b6113ff60608301856112a9565b61140c60808301846112a9565b9695505050505050565b600060208201905061142b6000830184611259565b92915050565b6000602082019050611446600083018461129a565b92915050565b6000608082019050611461600083018761129a565b61146e602083018661129a565b61147b6040830185611202565b611488606083018461129a565b95945050505050565b60006020820190506114a660008301846112a9565b92915050565b60006020820190506114c160008301846112b8565b92915050565b60006114d16114e2565b90506114dd8282611730565b919050565b6000604051905090565b600067ffffffffffffffff8211156115075761150661184e565b5b602082029050602081019050919050565b600067ffffffffffffffff8211156115335761153261184e565b5b61153c8261189b565b9050602081019050919050565b6000819050602082019050919050565b600081519050919050565b600081519050919050565b6000602082019050919050565b600082825260208201905092915050565b600082825260208201905092915050565b600081905092915050565b60006115b4826116ae565b91506115bf836116ae565b9250827fffffffffffffffffffffffffffffffffffffffffffffffffffffffffffffffff038211156115f4576115f3611792565b5b828201905092915050565b600061160a826116ae565b9150611615836116ae565b92508282101561162857611627611792565b5b828203905092915050565b600061163e8261168e565b9050919050565b60006116508261168e565b9050919050565b60008115159050919050565b6000819050919050565b600081905061167b826118af565b919050565b600061ffff82169050919050565b600073ffffffffffffffffffffffffffffffffffffffff82169050919050565b6000819050919050565b600063ffffffff82169050919050565b600067ffffffffffffffff82169050919050565b60006116e78261166d565b9050919050565b82818337600083830152505050565b60005b8381101561171b578082015181840152602081019050611700565b8381111561172a576000848401525b50505050565b6117398261189b565b810181811067ffffffffffffffff821117156117585761175761184e565b5b80604052505050565b600061176c826116ae565b9150611777836116ae565b925082611787576117866117c1565b5b828206905092915050565b7f4e487b7100000000000000000000000000000000000000000000000000000000600052601160045260246000fd5b7f4e487b7100000000000000000000000000000000000000000000000000000000600052601260045260246000fd5b7f4e487b7100000000000000000000000000000000000000000000000000000000600052602160045260246000fd5b7f4e487b7100000000000000000000000000000000000000000000000000000000600052603260045260246000fd5b7f4e487b7100000000000000000000000000000000000000000000000000000000600052604160045260246000fd5b600080fd5b600080fd5b600080fd5b600080fd5b600080fd5b600080fd5b6000601f19601f8301169050919050565b50565b600281106118c0576118bf6117f0565b5b50565b6118cc816116ae565b81146118d757600080fd5b5056fea26469706673582212205ed6c548e0915ae8bc71a27f922fd316242ce2b820fd060951fe3deadbcafde564736f6c63430008070033",
  "devdoc": {
    "kind": "dev",
    "methods": {},
    "version": 1
  },
  "userdoc": {
    "kind": "user",
    "methods": {},
    "version": 1
  },
  "storageLayout": {
    "storage": [
      {
        "astId": 206,
        "contract": "contracts/Raffle.sol:Raffle",
        "label": "i_participants",
        "offset": 0,
        "slot": "0",
        "type": "t_array(t_address_payable)dyn_storage"
      },
      {
        "astId": 209,
        "contract": "contracts/Raffle.sol:Raffle",
        "label": "i_vrfCoordinatorV2",
        "offset": 0,
        "slot": "1",
        "type": "t_contract(VRFCoordinatorV2Interface)172"
      },
      {
        "astId": 224,
        "contract": "contracts/Raffle.sol:Raffle",
        "label": "s_raffleState",
        "offset": 20,
        "slot": "1",
        "type": "t_enum(RaffleState)201"
      },
      {
        "astId": 226,
        "contract": "contracts/Raffle.sol:Raffle",
        "label": "s_recentWinner",
        "offset": 0,
        "slot": "2",
        "type": "t_address"
      },
      {
        "astId": 228,
        "contract": "contracts/Raffle.sol:Raffle",
        "label": "s_lastTimeStamp",
        "offset": 0,
        "slot": "3",
        "type": "t_uint256"
      }
    ],
    "types": {
      "t_address": {
        "encoding": "inplace",
        "label": "address",
        "numberOfBytes": "20"
      },
      "t_address_payable": {
        "encoding": "inplace",
        "label": "address payable",
        "numberOfBytes": "20"
      },
      "t_array(t_address_payable)dyn_storage": {
        "base": "t_address_payable",
        "encoding": "dynamic_array",
        "label": "address payable[]",
        "numberOfBytes": "32"
      },
      "t_contract(VRFCoordinatorV2Interface)172": {
        "encoding": "inplace",
        "label": "contract VRFCoordinatorV2Interface",
        "numberOfBytes": "20"
      },
      "t_enum(RaffleState)201": {
        "encoding": "inplace",
        "label": "enum Raffle.RaffleState",
        "numberOfBytes": "1"
      },
      "t_uint256": {
        "encoding": "inplace",
        "label": "uint256",
        "numberOfBytes": "32"
      }
    }
  }
}