{
  "address": "0xe7f1725E7734CE288F8367e1Bb143E90bb3F0512",
  "abi": [
    {
      "inputs": [
        {
          "internalType": "contract AggregatorV3Interface",
          "name": "priceFeed",
          "type": "address"
        }
      ],
      "stateMutability": "nonpayable",
      "type": "constructor"
    },
    {
      "inputs": [],
      "name": "NotOwner",
      "type": "error"
    },
    {
      "stateMutability": "payable",
      "type": "fallback"
    },
    {
      "inputs": [],
      "name": "MINIMUM_USD",
      "outputs": [
        {
          "internalType": "uint256",
          "name": "",
          "type": "uint256"
        }
      ],
      "stateMutability": "view",
      "type": "function"
    },
    {
      "inputs": [
        {
          "internalType": "address",
          "name": "",
          "type": "address"
        }
      ],
      "name": "addressToAmountFunded",
      "outputs": [
        {
          "internalType": "uint256",
          "name": "",
          "type": "uint256"
        }
      ],
      "stateMutability": "view",
      "type": "function"
    },
    {
      "inputs": [],
      "name": "fund",
      "outputs": [],
      "stateMutability": "payable",
      "type": "function"
    },
    {
      "inputs": [
        {
          "internalType": "uint256",
          "name": "",
          "type": "uint256"
        }
      ],
      "name": "funders",
      "outputs": [
        {
          "internalType": "address",
          "name": "",
          "type": "address"
        }
      ],
      "stateMutability": "view",
      "type": "function"
    },
    {
      "inputs": [],
      "name": "getPriceFeed",
      "outputs": [
        {
          "internalType": "contract AggregatorV3Interface",
          "name": "",
          "type": "address"
        }
      ],
      "stateMutability": "view",
      "type": "function"
    },
    {
      "inputs": [],
      "name": "getVersion",
      "outputs": [
        {
          "internalType": "uint256",
          "name": "",
          "type": "uint256"
        }
      ],
      "stateMutability": "view",
      "type": "function"
    },
    {
      "inputs": [],
      "name": "i_owner",
      "outputs": [
        {
          "internalType": "address",
          "name": "",
          "type": "address"
        }
      ],
      "stateMutability": "view",
      "type": "function"
    },
    {
      "inputs": [],
      "name": "s_priceFeed",
      "outputs": [
        {
          "internalType": "contract AggregatorV3Interface",
          "name": "",
          "type": "address"
        }
      ],
      "stateMutability": "view",
      "type": "function"
    },
    {
      "inputs": [],
      "name": "withdraw",
      "outputs": [],
      "stateMutability": "nonpayable",
      "type": "function"
    },
    {
      "stateMutability": "payable",
      "type": "receive"
    }
  ],
  "transactionHash": "0xf8d13f67b90255e7399368d067f9435fab8e0d9e92ac295ff0c47b347d83faf6",
  "args": [
    "0x5FbDB2315678afecb367f032d93F642f64180aa3"
  ],
  "numDeployments": 1,
  "solcInputHash": "f517fd7f0bb2e52ec6506517a0884e65",
  "bytecode": "0x60806040523480156200001157600080fd5b506040516200114a3803806200114a8339818101604052810190620000379190620000d7565b33600260006101000a81548173ffffffffffffffffffffffffffffffffffffffff021916908373ffffffffffffffffffffffffffffffffffffffff16021790555080600360006101000a81548173ffffffffffffffffffffffffffffffffffffffff021916908373ffffffffffffffffffffffffffffffffffffffff1602179055505062000170565b600081519050620000d18162000156565b92915050565b600060208284031215620000f057620000ef62000151565b5b60006200010084828501620000c0565b91505092915050565b6000620001168262000131565b9050919050565b60006200012a8262000109565b9050919050565b600073ffffffffffffffffffffffffffffffffffffffff82169050919050565b600080fd5b62000161816200011d565b81146200016d57600080fd5b50565b610fca80620001806000396000f3fe60806040526004361061008a5760003560e01c80636b69a592116100595780636b69a5921461014d5780639e87a5cd14610178578063b60d4288146101a3578063dba6335f146101ad578063dc0d3dff146101d857610099565b80630d8e6e2c146100a35780630ec3b027146100ce5780633ccfd60b146100f95780633e47d6f31461011057610099565b3661009957610097610215565b005b6100a1610215565b005b3480156100af57600080fd5b506100b861034f565b6040516100c59190610b18565b60405180910390f35b3480156100da57600080fd5b506100e36103ed565b6040516100f09190610abd565b60405180910390f35b34801561010557600080fd5b5061010e610413565b005b34801561011c57600080fd5b50610137600480360381019061013291906108f5565b610655565b6040516101449190610b18565b60405180910390f35b34801561015957600080fd5b5061016261066d565b60405161016f9190610b18565b60405180910390f35b34801561018457600080fd5b5061018d61067a565b60405161019a9190610abd565b60405180910390f35b6101ab610215565b005b3480156101b957600080fd5b506101c26106a4565b6040516101cf9190610aa2565b60405180910390f35b3480156101e457600080fd5b506101ff60048036038101906101fa9190610922565b6106ca565b60405161020c9190610aa2565b60405180910390f35b6802b5e3af16b1880000610254600360009054906101000a900473ffffffffffffffffffffffffffffffffffffffff163461070990919063ffffffff16565b1015610295576040517f08c379a000000000000000000000000000000000000000000000000000000000815260040161028c90610af8565b60405180910390fd5b346000803373ffffffffffffffffffffffffffffffffffffffff1673ffffffffffffffffffffffffffffffffffffffff16815260200190815260200160002060008282546102e39190610b4f565b925050819055506001339080600181540180825580915050600190039060005260206000200160009091909190916101000a81548173ffffffffffffffffffffffffffffffffffffffff021916908373ffffffffffffffffffffffffffffffffffffffff160217905550565b60008073694aa1769357215de4fac081bf1f309adc32530690508073ffffffffffffffffffffffffffffffffffffffff166354fd4d506040518163ffffffff1660e01b815260040160206040518083038186803b1580156103af57600080fd5b505afa1580156103c3573d6000803e3d6000fd5b505050506040513d601f19601f820116820180604052508101906103e7919061094f565b91505090565b600360009054906101000a900473ffffffffffffffffffffffffffffffffffffffff1681565b600260009054906101000a900473ffffffffffffffffffffffffffffffffffffffff1673ffffffffffffffffffffffffffffffffffffffff163373ffffffffffffffffffffffffffffffffffffffff161461049a576040517f30cd747100000000000000000000000000000000000000000000000000000000815260040160405180910390fd5b60005b600180549050811015610545576000600182815481106104c0576104bf610e80565b5b9060005260206000200160009054906101000a900473ffffffffffffffffffffffffffffffffffffffff16905060008060008373ffffffffffffffffffffffffffffffffffffffff1673ffffffffffffffffffffffffffffffffffffffff1681526020019081526020016000208190555050808061053d90610dd9565b91505061049d565b50600067ffffffffffffffff81111561056157610560610eaf565b5b60405190808252806020026020018201604052801561058f5781602001602082028036833780820191505090505b50600190805190602001906105a59291906107e5565b5060003373ffffffffffffffffffffffffffffffffffffffff16476040516105cc90610a8d565b60006040518083038185875af1925050503d8060008114610609576040519150601f19603f3d011682016040523d82523d6000602084013e61060e565b606091505b5050905080610652576040517f08c379a000000000000000000000000000000000000000000000000000000000815260040161064990610ad8565b60405180910390fd5b50565b60006020528060005260406000206000915090505481565b6802b5e3af16b188000081565b6000600360009054906101000a900473ffffffffffffffffffffffffffffffffffffffff16905090565b600260009054906101000a900473ffffffffffffffffffffffffffffffffffffffff1681565b600181815481106106da57600080fd5b906000526020600020016000915054906101000a900473ffffffffffffffffffffffffffffffffffffffff1681565b60008061071583610745565b90506000670de0b6b3a7640000858361072e9190610ced565b6107389190610ba5565b9050809250505092915050565b6000808273ffffffffffffffffffffffffffffffffffffffff1663feaf968c6040518163ffffffff1660e01b815260040160a06040518083038186803b15801561078e57600080fd5b505afa1580156107a2573d6000803e3d6000fd5b505050506040513d601f19601f820116820180604052508101906107c6919061097c565b5050509150506402540be400816107dd9190610bd6565b915050919050565b82805482825590600052602060002090810192821561085e579160200282015b8281111561085d5782518260006101000a81548173ffffffffffffffffffffffffffffffffffffffff021916908373ffffffffffffffffffffffffffffffffffffffff16021790555091602001919060010190610805565b5b50905061086b919061086f565b5090565b5b80821115610888576000816000905550600101610870565b5090565b60008135905061089b81610f38565b92915050565b6000815190506108b081610f4f565b92915050565b6000813590506108c581610f66565b92915050565b6000815190506108da81610f66565b92915050565b6000815190506108ef81610f7d565b92915050565b60006020828403121561090b5761090a610ede565b5b60006109198482850161088c565b91505092915050565b60006020828403121561093857610937610ede565b5b6000610946848285016108b6565b91505092915050565b60006020828403121561096557610964610ede565b5b6000610973848285016108cb565b91505092915050565b600080600080600060a0868803121561099857610997610ede565b5b60006109a6888289016108e0565b95505060206109b7888289016108a1565b94505060406109c8888289016108cb565b93505060606109d9888289016108cb565b92505060806109ea888289016108e0565b9150509295509295909350565b610a0081610d47565b82525050565b610a0f81610da3565b82525050565b6000610a22600b83610b3e565b9150610a2d82610ee3565b602082019050919050565b6000610a45601b83610b3e565b9150610a5082610f0c565b602082019050919050565b6000610a68600083610b33565b9150610a7382610f35565b600082019050919050565b610a8781610d83565b82525050565b6000610a9882610a5b565b9150819050919050565b6000602082019050610ab760008301846109f7565b92915050565b6000602082019050610ad26000830184610a06565b92915050565b60006020820190508181036000830152610af181610a15565b9050919050565b60006020820190508181036000830152610b1181610a38565b9050919050565b6000602082019050610b2d6000830184610a7e565b92915050565b600081905092915050565b600082825260208201905092915050565b6000610b5a82610d83565b9150610b6583610d83565b9250827fffffffffffffffffffffffffffffffffffffffffffffffffffffffffffffffff03821115610b9a57610b99610e22565b5b828201905092915050565b6000610bb082610d83565b9150610bbb83610d83565b925082610bcb57610bca610e51565b5b828204905092915050565b6000610be182610d59565b9150610bec83610d59565b9250827f7fffffffffffffffffffffffffffffffffffffffffffffffffffffffffffffff0482116000841360008413161615610c2b57610c2a610e22565b5b817f80000000000000000000000000000000000000000000000000000000000000000583126000841260008413161615610c6857610c67610e22565b5b827f80000000000000000000000000000000000000000000000000000000000000000582126000841360008412161615610ca557610ca4610e22565b5b827f7fffffffffffffffffffffffffffffffffffffffffffffffffffffffffffffff0582126000841260008412161615610ce257610ce1610e22565b5b828202905092915050565b6000610cf882610d83565b9150610d0383610d83565b9250817fffffffffffffffffffffffffffffffffffffffffffffffffffffffffffffffff0483118215151615610d3c57610d3b610e22565b5b828202905092915050565b6000610d5282610d63565b9050919050565b6000819050919050565b600073ffffffffffffffffffffffffffffffffffffffff82169050919050565b6000819050919050565b600069ffffffffffffffffffff82169050919050565b6000610dae82610db5565b9050919050565b6000610dc082610dc7565b9050919050565b6000610dd282610d63565b9050919050565b6000610de482610d83565b91507fffffffffffffffffffffffffffffffffffffffffffffffffffffffffffffffff821415610e1757610e16610e22565b5b600182019050919050565b7f4e487b7100000000000000000000000000000000000000000000000000000000600052601160045260246000fd5b7f4e487b7100000000000000000000000000000000000000000000000000000000600052601260045260246000fd5b7f4e487b7100000000000000000000000000000000000000000000000000000000600052603260045260246000fd5b7f4e487b7100000000000000000000000000000000000000000000000000000000600052604160045260246000fd5b600080fd5b7f43616c6c206661696c6564000000000000000000000000000000000000000000600082015250565b7f596f75206e65656420746f207370656e64206d6f726520455448210000000000600082015250565b50565b610f4181610d47565b8114610f4c57600080fd5b50565b610f5881610d59565b8114610f6357600080fd5b50565b610f6f81610d83565b8114610f7a57600080fd5b50565b610f8681610d8d565b8114610f9157600080fd5b5056fea2646970667358221220e2c7e21e79a80aa1dda85bf814ea06424834292aa26071cf32d8a3553c2b902f64736f6c63430008070033",
  "devdoc": {
    "kind": "dev",
    "methods": {},
    "version": 1
  },
  "userdoc": {
    "kind": "user",
    "methods": {},
    "version": 1
  },
  "storageLayout": {
    "storage": [
      {
        "astId": 58,
        "contract": "contracts/FundMe.sol:FundMe",
        "label": "addressToAmountFunded",
        "offset": 0,
        "slot": "0",
        "type": "t_mapping(t_address,t_uint256)"
      },
      {
        "astId": 61,
        "contract": "contracts/FundMe.sol:FundMe",
        "label": "funders",
        "offset": 0,
        "slot": "1",
        "type": "t_array(t_address)dyn_storage"
      },
      {
        "astId": 63,
        "contract": "contracts/FundMe.sol:FundMe",
        "label": "i_owner",
        "offset": 0,
        "slot": "2",
        "type": "t_address"
      },
      {
        "astId": 73,
        "contract": "contracts/FundMe.sol:FundMe",
        "label": "s_priceFeed",
        "offset": 0,
        "slot": "3",
        "type": "t_contract(AggregatorV3Interface)45"
      }
    ],
    "types": {
      "t_address": {
        "encoding": "inplace",
        "label": "address",
        "numberOfBytes": "20"
      },
      "t_array(t_address)dyn_storage": {
        "base": "t_address",
        "encoding": "dynamic_array",
        "label": "address[]",
        "numberOfBytes": "32"
      },
      "t_contract(AggregatorV3Interface)45": {
        "encoding": "inplace",
        "label": "contract AggregatorV3Interface",
        "numberOfBytes": "20"
      },
      "t_mapping(t_address,t_uint256)": {
        "encoding": "mapping",
        "key": "t_address",
        "label": "mapping(address => uint256)",
        "numberOfBytes": "32",
        "value": "t_uint256"
      },
      "t_uint256": {
        "encoding": "inplace",
        "label": "uint256",
        "numberOfBytes": "32"
      }
    }
  }
}